{
  "_format": "hh-sol-artifact-1",
  "contractName": "EncoderTest",
  "sourceName": "contracts/EncoderTest.sol",
  "abi": [
    {
      "inputs": [
        {
          "internalType": "address",
          "name": "id",
          "type": "address"
        },
        {
          "internalType": "uint128",
          "name": "num1",
          "type": "uint128"
        },
        {
          "internalType": "uint128",
          "name": "num2",
          "type": "uint128"
        },
        {
          "internalType": "uint256[]",
          "name": "ref1",
          "type": "uint256[]"
        },
        {
          "internalType": "uint256[]",
          "name": "ref2",
          "type": "uint256[]"
        }
      ],
      "stateMutability": "nonpayable",
      "type": "constructor"
    },
    {
      "inputs": [
        {
          "internalType": "address",
          "name": "",
          "type": "address"
        }
      ],
      "name": "datas",
      "outputs": [
        {
          "internalType": "uint128",
          "name": "num1",
          "type": "uint128"
        },
        {
          "internalType": "uint128",
          "name": "num2",
          "type": "uint128"
        }
      ],
      "stateMutability": "view",
      "type": "function"
    },
    {
      "inputs": [
        {
          "internalType": "address",
          "name": "id",
          "type": "address"
        },
        {
          "internalType": "uint256",
          "name": "index",
          "type": "uint256"
        }
      ],
      "name": "ref1",
      "outputs": [
        {
          "internalType": "uint256",
          "name": "",
          "type": "uint256"
        }
      ],
      "stateMutability": "view",
      "type": "function"
    },
    {
      "inputs": [
        {
          "internalType": "address",
          "name": "id",
          "type": "address"
        },
        {
          "internalType": "uint256",
          "name": "index",
          "type": "uint256"
        }
      ],
      "name": "ref2",
      "outputs": [
        {
          "internalType": "uint256",
          "name": "",
          "type": "uint256"
        }
      ],
      "stateMutability": "view",
      "type": "function"
    }
  ],
  "bytecode": "0x608060405234801561001057600080fd5b50604051610894380380610894833981810160405281019061003291906102b9565b6040518060800160405280856fffffffffffffffffffffffffffffffff168152602001846fffffffffffffffffffffffffffffffff168152602001838152602001828152506000808773ffffffffffffffffffffffffffffffffffffffff1673ffffffffffffffffffffffffffffffffffffffff16815260200190815260200160002060008201518160000160006101000a8154816fffffffffffffffffffffffffffffffff02191690836fffffffffffffffffffffffffffffffff16021790555060208201518160000160106101000a8154816fffffffffffffffffffffffffffffffff02191690836fffffffffffffffffffffffffffffffff160217905550604082015181600101908051906020019061014f92919061017a565b50606082015181600201908051906020019061016c92919061017a565b509050505050505050610489565b8280548282559060005260206000209081019282156101b6579160200282015b828111156101b557825182559160200191906001019061019a565b5b5090506101c391906101c7565b5090565b5b808211156101e05760008160009055506001016101c8565b5090565b60006101f76101f284610391565b610360565b9050808382526020820190508285602086028201111561021657600080fd5b60005b85811015610246578161022c88826102a4565b845260208401935060208301925050600181019050610219565b5050509392505050565b60008151905061025f81610444565b92915050565b600082601f83011261027657600080fd5b81516102868482602086016101e4565b91505092915050565b60008151905061029e8161045b565b92915050565b6000815190506102b381610472565b92915050565b600080600080600060a086880312156102d157600080fd5b60006102df88828901610250565b95505060206102f08882890161028f565b94505060406103018882890161028f565b935050606086015167ffffffffffffffff81111561031e57600080fd5b61032a88828901610265565b925050608086015167ffffffffffffffff81111561034757600080fd5b61035388828901610265565b9150509295509295909350565b6000604051905081810181811067ffffffffffffffff8211171561038757610386610415565b5b8060405250919050565b600067ffffffffffffffff8211156103ac576103ab610415565b5b602082029050602081019050919050565b60006103c8826103eb565b9050919050565b60006fffffffffffffffffffffffffffffffff82169050919050565b600073ffffffffffffffffffffffffffffffffffffffff82169050919050565b6000819050919050565b7f4e487b7100000000000000000000000000000000000000000000000000000000600052604160045260246000fd5b61044d816103bd565b811461045857600080fd5b50565b610464816103cf565b811461046f57600080fd5b50565b61047b8161040b565b811461048657600080fd5b50565b6103fc806104986000396000f3fe608060405234801561001057600080fd5b50600436106100415760003560e01c806368a6cdf21461004657806394afcdb714610077578063f78e8374146100a7575b600080fd5b610060600480360381019061005b9190610279565b6100d7565b60405161006e9291906102fc565b60405180910390f35b610091600480360381019061008c91906102a2565b610133565b60405161009e9190610325565b60405180910390f35b6100c160048036038101906100bc91906102a2565b6101c1565b6040516100ce9190610325565b60405180910390f35b60006020528060005260406000206000915090508060000160009054906101000a90046fffffffffffffffffffffffffffffffff16908060000160109054906101000a90046fffffffffffffffffffffffffffffffff16905082565b60008060008473ffffffffffffffffffffffffffffffffffffffff1673ffffffffffffffffffffffffffffffffffffffff16815260200190815260200160002060010182815481106101ae577f4e487b7100000000000000000000000000000000000000000000000000000000600052603260045260246000fd5b9060005260206000200154905092915050565b60008060008473ffffffffffffffffffffffffffffffffffffffff1673ffffffffffffffffffffffffffffffffffffffff168152602001908152602001600020600101828154811061023c577f4e487b7100000000000000000000000000000000000000000000000000000000600052603260045260246000fd5b9060005260206000200154905092915050565b60008135905061025e81610398565b92915050565b600081359050610273816103af565b92915050565b60006020828403121561028b57600080fd5b60006102998482850161024f565b91505092915050565b600080604083850312156102b557600080fd5b60006102c38582860161024f565b92505060206102d485828601610264565b9150509250929050565b6102e781610352565b82525050565b6102f68161038e565b82525050565b600060408201905061031160008301856102de565b61031e60208301846102de565b9392505050565b600060208201905061033a60008301846102ed565b92915050565b600061034b8261036e565b9050919050565b60006fffffffffffffffffffffffffffffffff82169050919050565b600073ffffffffffffffffffffffffffffffffffffffff82169050919050565b6000819050919050565b6103a181610340565b81146103ac57600080fd5b50565b6103b88161038e565b81146103c357600080fd5b5056fea2646970667358221220249e866fa2002b97e7aac8fe8a8840547a850ac65c81b3a453c5ce736386f91764736f6c63430008000033",
  "linkReferences": {},
  "deployedLinkReferences": {}
}