{
  "_format": "hh-sol-artifact-1",
  "contractName": "ERC165",
  "sourceName": "contracts/ERC165.sol",
  "abi": [
    {
      "inputs": [],
      "name": "test",
      "outputs": [
        {
          "internalType": "bytes4",
          "name": "",
          "type": "bytes4"
        }
      ],
      "stateMutability": "view",
      "type": "function"
    }
  ],
  "bytecode": "0x608060405234801561001057600080fd5b506102c3806100206000396000f3fe608060405234801561001057600080fd5b506004361061002b5760003560e01c8063f8a8fd6d14610030575b600080fd5b61003861004e565b60405161004591906101c4565b60405180910390f35b600061008e6040518060400160405280600481526020017f74657374000000000000000000000000000000000000000000000000000000008152506100ba565b60007f070217a40000000000000000000000000000000000000000000000000000000090508091505090565b610150816040516024016100ce91906101df565b6040516020818303038152906040527f41304fac000000000000000000000000000000000000000000000000000000007bffffffffffffffffffffffffffffffffffffffffffffffffffffffff19166020820180517bffffffffffffffffffffffffffffffffffffffffffffffffffffffff8381831617835250505050610153565b50565b60008151905060006a636f6e736f6c652e6c6f679050602083016000808483855afa5050505050565b6101858161021d565b82525050565b600061019682610201565b6101a0818561020c565b93506101b0818560208601610249565b6101b98161027c565b840191505092915050565b60006020820190506101d9600083018461017c565b92915050565b600060208201905081810360008301526101f9818461018b565b905092915050565b600081519050919050565b600082825260208201905092915050565b60007fffffffff0000000000000000000000000000000000000000000000000000000082169050919050565b60005b8381101561026757808201518184015260208101905061024c565b83811115610276576000848401525b50505050565b6000601f19601f830116905091905056fea2646970667358221220798430780c778accfd2a7878784e560e220e4b57af3401922a37693004c033df64736f6c63430008000033",
  "linkReferences": {},
  "deployedLinkReferences": {}
}