{
  "_format": "hh-sol-artifact-1",
  "contractName": "ERC20WithPermit",
  "sourceName": "contracts/ERC20WithPermit.sol",
  "abi": [
    {
      "inputs": [
        {
          "internalType": "string",
          "name": "name_",
          "type": "string"
        },
        {
          "internalType": "string",
          "name": "symbol_",
          "type": "string"
        }
      ],
      "stateMutability": "nonpayable",
      "type": "constructor"
    },
    {
      "anonymous": false,
      "inputs": [
        {
          "indexed": true,
          "internalType": "address",
          "name": "owner",
          "type": "address"
        },
        {
          "indexed": true,
          "internalType": "address",
          "name": "spender",
          "type": "address"
        },
        {
          "indexed": false,
          "internalType": "uint256",
          "name": "value",
          "type": "uint256"
        }
      ],
      "name": "Approval",
      "type": "event"
    },
    {
      "anonymous": false,
      "inputs": [
        {
          "indexed": true,
          "internalType": "address",
          "name": "from",
          "type": "address"
        },
        {
          "indexed": true,
          "internalType": "address",
          "name": "to",
          "type": "address"
        },
        {
          "indexed": false,
          "internalType": "uint256",
          "name": "value",
          "type": "uint256"
        }
      ],
      "name": "Transfer",
      "type": "event"
    },
    {
      "inputs": [],
      "name": "DOMAIN_SEPARATOR",
      "outputs": [
        {
          "internalType": "bytes32",
          "name": "",
          "type": "bytes32"
        }
      ],
      "stateMutability": "view",
      "type": "function"
    },
    {
      "inputs": [],
      "name": "PERMIT_TYPEHASH",
      "outputs": [
        {
          "internalType": "bytes32",
          "name": "",
          "type": "bytes32"
        }
      ],
      "stateMutability": "view",
      "type": "function"
    },
    {
      "inputs": [
        {
          "internalType": "address",
          "name": "owner",
          "type": "address"
        },
        {
          "internalType": "address",
          "name": "spender",
          "type": "address"
        }
      ],
      "name": "allowance",
      "outputs": [
        {
          "internalType": "uint256",
          "name": "",
          "type": "uint256"
        }
      ],
      "stateMutability": "view",
      "type": "function"
    },
    {
      "inputs": [
        {
          "internalType": "address",
          "name": "spender",
          "type": "address"
        },
        {
          "internalType": "uint256",
          "name": "amount",
          "type": "uint256"
        }
      ],
      "name": "approve",
      "outputs": [
        {
          "internalType": "bool",
          "name": "",
          "type": "bool"
        }
      ],
      "stateMutability": "nonpayable",
      "type": "function"
    },
    {
      "inputs": [
        {
          "internalType": "address",
          "name": "account",
          "type": "address"
        }
      ],
      "name": "balanceOf",
      "outputs": [
        {
          "internalType": "uint256",
          "name": "",
          "type": "uint256"
        }
      ],
      "stateMutability": "view",
      "type": "function"
    },
    {
      "inputs": [],
      "name": "decimals",
      "outputs": [
        {
          "internalType": "uint8",
          "name": "",
          "type": "uint8"
        }
      ],
      "stateMutability": "view",
      "type": "function"
    },
    {
      "inputs": [
        {
          "internalType": "address",
          "name": "spender",
          "type": "address"
        },
        {
          "internalType": "uint256",
          "name": "subtractedValue",
          "type": "uint256"
        }
      ],
      "name": "decreaseAllowance",
      "outputs": [
        {
          "internalType": "bool",
          "name": "",
          "type": "bool"
        }
      ],
      "stateMutability": "nonpayable",
      "type": "function"
    },
    {
      "inputs": [
        {
          "internalType": "address",
          "name": "spender",
          "type": "address"
        },
        {
          "internalType": "uint256",
          "name": "addedValue",
          "type": "uint256"
        }
      ],
      "name": "increaseAllowance",
      "outputs": [
        {
          "internalType": "bool",
          "name": "",
          "type": "bool"
        }
      ],
      "stateMutability": "nonpayable",
      "type": "function"
    },
    {
      "inputs": [],
      "name": "name",
      "outputs": [
        {
          "internalType": "string",
          "name": "",
          "type": "string"
        }
      ],
      "stateMutability": "view",
      "type": "function"
    },
    {
      "inputs": [
        {
          "internalType": "address",
          "name": "",
          "type": "address"
        }
      ],
      "name": "nonces",
      "outputs": [
        {
          "internalType": "uint256",
          "name": "",
          "type": "uint256"
        }
      ],
      "stateMutability": "view",
      "type": "function"
    },
    {
      "inputs": [
        {
          "internalType": "address",
          "name": "owner",
          "type": "address"
        },
        {
          "internalType": "address",
          "name": "spender",
          "type": "address"
        },
        {
          "internalType": "uint256",
          "name": "value",
          "type": "uint256"
        },
        {
          "internalType": "uint256",
          "name": "deadline",
          "type": "uint256"
        },
        {
          "internalType": "uint8",
          "name": "v",
          "type": "uint8"
        },
        {
          "internalType": "bytes32",
          "name": "r",
          "type": "bytes32"
        },
        {
          "internalType": "bytes32",
          "name": "s",
          "type": "bytes32"
        }
      ],
      "name": "permit",
      "outputs": [],
      "stateMutability": "nonpayable",
      "type": "function"
    },
    {
      "inputs": [],
      "name": "symbol",
      "outputs": [
        {
          "internalType": "string",
          "name": "",
          "type": "string"
        }
      ],
      "stateMutability": "view",
      "type": "function"
    },
    {
      "inputs": [],
      "name": "totalSupply",
      "outputs": [
        {
          "internalType": "uint256",
          "name": "",
          "type": "uint256"
        }
      ],
      "stateMutability": "view",
      "type": "function"
    },
    {
      "inputs": [
        {
          "internalType": "address",
          "name": "recipient",
          "type": "address"
        },
        {
          "internalType": "uint256",
          "name": "amount",
          "type": "uint256"
        }
      ],
      "name": "transfer",
      "outputs": [
        {
          "internalType": "bool",
          "name": "",
          "type": "bool"
        }
      ],
      "stateMutability": "nonpayable",
      "type": "function"
    },
    {
      "inputs": [
        {
          "internalType": "address",
          "name": "sender",
          "type": "address"
        },
        {
          "internalType": "address",
          "name": "recipient",
          "type": "address"
        },
        {
          "internalType": "uint256",
          "name": "amount",
          "type": "uint256"
        }
      ],
      "name": "transferFrom",
      "outputs": [
        {
          "internalType": "bool",
          "name": "",
          "type": "bool"
        }
      ],
      "stateMutability": "nonpayable",
      "type": "function"
    }
  ],
  "bytecode": "0x60806040523480156200001157600080fd5b50604051620021d8380380620021d88339818101604052810190620000379190620003bc565b81818160039080519060200190620000519291906200029a565b5080600490805190602001906200006a9291906200029a565b50505060004690507f8b73c3c69bb8fe3d512ecc4cf759cc79239f7b179b0ffacaa9a75d522b39400f83805190602001206040518060400160405280600181526020017f3100000000000000000000000000000000000000000000000000000000000000815250805190602001208330604051602001620000f0959493929190620004a4565b60405160208183030381529060405280519060200120600581905550620001273368056bc75e2d631000006200013060201b60201c565b50505062000756565b600073ffffffffffffffffffffffffffffffffffffffff168273ffffffffffffffffffffffffffffffffffffffff161415620001a3576040517f08c379a00000000000000000000000000000000000000000000000000000000081526004016200019a9062000501565b60405180910390fd5b620001b7600083836200029560201b60201c565b8060026000828254620001cb9190620005b8565b92505081905550806000808473ffffffffffffffffffffffffffffffffffffffff1673ffffffffffffffffffffffffffffffffffffffff1681526020019081526020016000206000828254620002229190620005b8565b925050819055508173ffffffffffffffffffffffffffffffffffffffff16600073ffffffffffffffffffffffffffffffffffffffff167fddf252ad1be2c89b69c2b068fc378daa952ba7f163c4a11628f55a4df523b3ef8360405162000289919062000523565b60405180910390a35050565b505050565b828054620002a89062000693565b90600052602060002090601f016020900481019282620002cc576000855562000318565b82601f10620002e757805160ff191683800117855562000318565b8280016001018555821562000318579182015b8281111562000317578251825591602001919060010190620002fa565b5b5090506200032791906200032b565b5090565b5b80821115620003465760008160009055506001016200032c565b5090565b6000620003616200035b8462000574565b62000540565b9050828152602081018484840111156200037a57600080fd5b620003878482856200065d565b509392505050565b600082601f830112620003a157600080fd5b8151620003b38482602086016200034a565b91505092915050565b60008060408385031215620003d057600080fd5b600083015167ffffffffffffffff811115620003eb57600080fd5b620003f9858286016200038f565b925050602083015167ffffffffffffffff8111156200041757600080fd5b62000425858286016200038f565b9150509250929050565b6200043a8162000615565b82525050565b6200044b8162000629565b82525050565b600062000460601f83620005a7565b91507f45524332303a206d696e7420746f20746865207a65726f2061646472657373006000830152602082019050919050565b6200049e8162000653565b82525050565b600060a082019050620004bb600083018862000440565b620004ca602083018762000440565b620004d9604083018662000440565b620004e8606083018562000493565b620004f760808301846200042f565b9695505050505050565b600060208201905081810360008301526200051c8162000451565b9050919050565b60006020820190506200053a600083018462000493565b92915050565b6000604051905081810181811067ffffffffffffffff821117156200056a576200056962000727565b5b8060405250919050565b600067ffffffffffffffff82111562000592576200059162000727565b5b601f19601f8301169050602081019050919050565b600082825260208201905092915050565b6000620005c58262000653565b9150620005d28362000653565b9250827fffffffffffffffffffffffffffffffffffffffffffffffffffffffffffffffff038211156200060a5762000609620006c9565b5b828201905092915050565b6000620006228262000633565b9050919050565b6000819050919050565b600073ffffffffffffffffffffffffffffffffffffffff82169050919050565b6000819050919050565b60005b838110156200067d57808201518184015260208101905062000660565b838111156200068d576000848401525b50505050565b60006002820490506001821680620006ac57607f821691505b60208210811415620006c357620006c2620006f8565b5b50919050565b7f4e487b7100000000000000000000000000000000000000000000000000000000600052601160045260246000fd5b7f4e487b7100000000000000000000000000000000000000000000000000000000600052602260045260246000fd5b7f4e487b7100000000000000000000000000000000000000000000000000000000600052604160045260246000fd5b611a7280620007666000396000f3fe608060405234801561001057600080fd5b50600436106100f55760003560e01c80633950935111610097578063a457c2d711610066578063a457c2d71461029e578063a9059cbb146102ce578063d505accf146102fe578063dd62ed3e1461031a576100f5565b806339509351146101f057806370a08231146102205780637ecebe001461025057806395d89b4114610280576100f5565b806323b872dd116100d357806323b872dd1461016657806330adf81f14610196578063313ce567146101b45780633644e515146101d2576100f5565b806306fdde03146100fa578063095ea7b31461011857806318160ddd14610148575b600080fd5b61010261034a565b60405161010f9190611631565b60405180910390f35b610132600480360381019061012d9190611097565b6103dc565b60405161013f9190611555565b60405180910390f35b6101506103fa565b60405161015d9190611773565b60405180910390f35b610180600480360381019061017b9190610faa565b610404565b60405161018d9190611555565b60405180910390f35b61019e610505565b6040516101ab9190611570565b60405180910390f35b6101bc61052c565b6040516101c9919061178e565b60405180910390f35b6101da610535565b6040516101e79190611570565b60405180910390f35b61020a60048036038101906102059190611097565b61053b565b6040516102179190611555565b60405180910390f35b61023a60048036038101906102359190610f45565b6105e7565b6040516102479190611773565b60405180910390f35b61026a60048036038101906102659190610f45565b61062f565b6040516102779190611773565b60405180910390f35b610288610647565b6040516102959190611631565b60405180910390f35b6102b860048036038101906102b39190611097565b6106d9565b6040516102c59190611555565b60405180910390f35b6102e860048036038101906102e39190611097565b6107cd565b6040516102f59190611555565b60405180910390f35b61031860048036038101906103139190610ff9565b6107eb565b005b610334600480360381019061032f9190610f6e565b610a13565b6040516103419190611773565b60405180910390f35b606060038054610359906118ec565b80601f0160208091040260200160405190810160405280929190818152602001828054610385906118ec565b80156103d25780601f106103a7576101008083540402835291602001916103d2565b820191906000526020600020905b8154815290600101906020018083116103b557829003601f168201915b5050505050905090565b60006103f06103e9610a9a565b8484610aa2565b6001905092915050565b6000600254905090565b6000610411848484610c6d565b6000600160008673ffffffffffffffffffffffffffffffffffffffff1673ffffffffffffffffffffffffffffffffffffffff168152602001908152602001600020600061045c610a9a565b73ffffffffffffffffffffffffffffffffffffffff1673ffffffffffffffffffffffffffffffffffffffff168152602001908152602001600020549050828110156104dc576040517f08c379a00000000000000000000000000000000000000000000000000000000081526004016104d3906116b3565b60405180910390fd5b6104f9856104e8610a9a565b85846104f49190611826565b610aa2565b60019150509392505050565b7f6e71edae12b1b97f4d1f60370fef10105fa2faae0126114a169c64845d6126c960001b81565b60006012905090565b60055481565b60006105dd610548610a9a565b848460016000610556610a9a565b73ffffffffffffffffffffffffffffffffffffffff1673ffffffffffffffffffffffffffffffffffffffff16815260200190815260200160002060008873ffffffffffffffffffffffffffffffffffffffff1673ffffffffffffffffffffffffffffffffffffffff168152602001908152602001600020546105d891906117d0565b610aa2565b6001905092915050565b60008060008373ffffffffffffffffffffffffffffffffffffffff1673ffffffffffffffffffffffffffffffffffffffff168152602001908152602001600020549050919050565b60066020528060005260406000206000915090505481565b606060048054610656906118ec565b80601f0160208091040260200160405190810160405280929190818152602001828054610682906118ec565b80156106cf5780601f106106a4576101008083540402835291602001916106cf565b820191906000526020600020905b8154815290600101906020018083116106b257829003601f168201915b5050505050905090565b600080600160006106e8610a9a565b73ffffffffffffffffffffffffffffffffffffffff1673ffffffffffffffffffffffffffffffffffffffff16815260200190815260200160002060008573ffffffffffffffffffffffffffffffffffffffff1673ffffffffffffffffffffffffffffffffffffffff168152602001908152602001600020549050828110156107a5576040517f08c379a000000000000000000000000000000000000000000000000000000000815260040161079c90611753565b60405180910390fd5b6107c26107b0610a9a565b8585846107bd9190611826565b610aa2565b600191505092915050565b60006107e16107da610a9a565b8484610c6d565b6001905092915050565b4284101561082e576040517f08c379a0000000000000000000000000000000000000000000000000000000008152600401610825906116d3565b60405180910390fd5b60006005547f6e71edae12b1b97f4d1f60370fef10105fa2faae0126114a169c64845d6126c960001b898989600660008e73ffffffffffffffffffffffffffffffffffffffff1673ffffffffffffffffffffffffffffffffffffffff16815260200190815260200160002060008154809291906108aa9061191e565b919050558a6040516020016108c49695949392919061158b565b604051602081830303815290604052805190602001206040516020016108eb92919061151e565b60405160208183030381529060405280519060200120905060006001828686866040516000815260200160405260405161092894939291906115ec565b6020604051602081039080840390855afa15801561094a573d6000803e3d6000fd5b505050602060405103519050600073ffffffffffffffffffffffffffffffffffffffff168173ffffffffffffffffffffffffffffffffffffffff16141580156109be57508873ffffffffffffffffffffffffffffffffffffffff168173ffffffffffffffffffffffffffffffffffffffff16145b6109fd576040517f08c379a00000000000000000000000000000000000000000000000000000000081526004016109f4906116f3565b60405180910390fd5b610a08898989610aa2565b505050505050505050565b6000600160008473ffffffffffffffffffffffffffffffffffffffff1673ffffffffffffffffffffffffffffffffffffffff16815260200190815260200160002060008373ffffffffffffffffffffffffffffffffffffffff1673ffffffffffffffffffffffffffffffffffffffff16815260200190815260200160002054905092915050565b600033905090565b600073ffffffffffffffffffffffffffffffffffffffff168373ffffffffffffffffffffffffffffffffffffffff161415610b12576040517f08c379a0000000000000000000000000000000000000000000000000000000008152600401610b0990611733565b60405180910390fd5b600073ffffffffffffffffffffffffffffffffffffffff168273ffffffffffffffffffffffffffffffffffffffff161415610b82576040517f08c379a0000000000000000000000000000000000000000000000000000000008152600401610b7990611673565b60405180910390fd5b80600160008573ffffffffffffffffffffffffffffffffffffffff1673ffffffffffffffffffffffffffffffffffffffff16815260200190815260200160002060008473ffffffffffffffffffffffffffffffffffffffff1673ffffffffffffffffffffffffffffffffffffffff168152602001908152602001600020819055508173ffffffffffffffffffffffffffffffffffffffff168373ffffffffffffffffffffffffffffffffffffffff167f8c5be1e5ebec7d5bd14f71427d1e84f3dd0314c0f7b2291e5b200ac8c7c3b92583604051610c609190611773565b60405180910390a3505050565b600073ffffffffffffffffffffffffffffffffffffffff168373ffffffffffffffffffffffffffffffffffffffff161415610cdd576040517f08c379a0000000000000000000000000000000000000000000000000000000008152600401610cd490611713565b60405180910390fd5b600073ffffffffffffffffffffffffffffffffffffffff168273ffffffffffffffffffffffffffffffffffffffff161415610d4d576040517f08c379a0000000000000000000000000000000000000000000000000000000008152600401610d4490611653565b60405180910390fd5b610d58838383610eec565b60008060008573ffffffffffffffffffffffffffffffffffffffff1673ffffffffffffffffffffffffffffffffffffffff16815260200190815260200160002054905081811015610dde576040517f08c379a0000000000000000000000000000000000000000000000000000000008152600401610dd590611693565b60405180910390fd5b8181610dea9190611826565b6000808673ffffffffffffffffffffffffffffffffffffffff1673ffffffffffffffffffffffffffffffffffffffff16815260200190815260200160002081905550816000808573ffffffffffffffffffffffffffffffffffffffff1673ffffffffffffffffffffffffffffffffffffffff1681526020019081526020016000206000828254610e7a91906117d0565b925050819055508273ffffffffffffffffffffffffffffffffffffffff168473ffffffffffffffffffffffffffffffffffffffff167fddf252ad1be2c89b69c2b068fc378daa952ba7f163c4a11628f55a4df523b3ef84604051610ede9190611773565b60405180910390a350505050565b505050565b600081359050610f00816119e0565b92915050565b600081359050610f15816119f7565b92915050565b600081359050610f2a81611a0e565b92915050565b600081359050610f3f81611a25565b92915050565b600060208284031215610f5757600080fd5b6000610f6584828501610ef1565b91505092915050565b60008060408385031215610f8157600080fd5b6000610f8f85828601610ef1565b9250506020610fa085828601610ef1565b9150509250929050565b600080600060608486031215610fbf57600080fd5b6000610fcd86828701610ef1565b9350506020610fde86828701610ef1565b9250506040610fef86828701610f1b565b9150509250925092565b600080600080600080600060e0888a03121561101457600080fd5b60006110228a828b01610ef1565b97505060206110338a828b01610ef1565b96505060406110448a828b01610f1b565b95505060606110558a828b01610f1b565b94505060806110668a828b01610f30565b93505060a06110778a828b01610f06565b92505060c06110888a828b01610f06565b91505092959891949750929550565b600080604083850312156110aa57600080fd5b60006110b885828601610ef1565b92505060206110c985828601610f1b565b9150509250929050565b6110dc8161185a565b82525050565b6110eb8161186c565b82525050565b6110fa81611878565b82525050565b61111161110c82611878565b611967565b82525050565b6000611122826117a9565b61112c81856117b4565b935061113c8185602086016118b9565b611145816119cf565b840191505092915050565b600061115d6023836117b4565b91507f45524332303a207472616e7366657220746f20746865207a65726f206164647260008301527f65737300000000000000000000000000000000000000000000000000000000006020830152604082019050919050565b60006111c36022836117b4565b91507f45524332303a20617070726f766520746f20746865207a65726f20616464726560008301527f73730000000000000000000000000000000000000000000000000000000000006020830152604082019050919050565b60006112296002836117c5565b91507f19010000000000000000000000000000000000000000000000000000000000006000830152600282019050919050565b60006112696026836117b4565b91507f45524332303a207472616e7366657220616d6f756e742065786365656473206260008301527f616c616e636500000000000000000000000000000000000000000000000000006020830152604082019050919050565b60006112cf6028836117b4565b91507f45524332303a207472616e7366657220616d6f756e742065786365656473206160008301527f6c6c6f77616e63650000000000000000000000000000000000000000000000006020830152604082019050919050565b60006113356018836117b4565b91507f4552433230576974685065726d69743a204558504952454400000000000000006000830152602082019050919050565b60006113756022836117b4565b91507f4552433230576974685065726d69743a20494e56414c49445f5349474e41545560008301527f52450000000000000000000000000000000000000000000000000000000000006020830152604082019050919050565b60006113db6025836117b4565b91507f45524332303a207472616e736665722066726f6d20746865207a65726f20616460008301527f64726573730000000000000000000000000000000000000000000000000000006020830152604082019050919050565b60006114416024836117b4565b91507f45524332303a20617070726f76652066726f6d20746865207a65726f2061646460008301527f72657373000000000000000000000000000000000000000000000000000000006020830152604082019050919050565b60006114a76025836117b4565b91507f45524332303a2064656372656173656420616c6c6f77616e63652062656c6f7760008301527f207a65726f0000000000000000000000000000000000000000000000000000006020830152604082019050919050565b611509816118a2565b82525050565b611518816118ac565b82525050565b60006115298261121c565b91506115358285611100565b6020820191506115458284611100565b6020820191508190509392505050565b600060208201905061156a60008301846110e2565b92915050565b600060208201905061158560008301846110f1565b92915050565b600060c0820190506115a060008301896110f1565b6115ad60208301886110d3565b6115ba60408301876110d3565b6115c76060830186611500565b6115d46080830185611500565b6115e160a0830184611500565b979650505050505050565b600060808201905061160160008301876110f1565b61160e602083018661150f565b61161b60408301856110f1565b61162860608301846110f1565b95945050505050565b6000602082019050818103600083015261164b8184611117565b905092915050565b6000602082019050818103600083015261166c81611150565b9050919050565b6000602082019050818103600083015261168c816111b6565b9050919050565b600060208201905081810360008301526116ac8161125c565b9050919050565b600060208201905081810360008301526116cc816112c2565b9050919050565b600060208201905081810360008301526116ec81611328565b9050919050565b6000602082019050818103600083015261170c81611368565b9050919050565b6000602082019050818103600083015261172c816113ce565b9050919050565b6000602082019050818103600083015261174c81611434565b9050919050565b6000602082019050818103600083015261176c8161149a565b9050919050565b60006020820190506117886000830184611500565b92915050565b60006020820190506117a3600083018461150f565b92915050565b600081519050919050565b600082825260208201905092915050565b600081905092915050565b60006117db826118a2565b91506117e6836118a2565b9250827fffffffffffffffffffffffffffffffffffffffffffffffffffffffffffffffff0382111561181b5761181a611971565b5b828201905092915050565b6000611831826118a2565b915061183c836118a2565b92508282101561184f5761184e611971565b5b828203905092915050565b600061186582611882565b9050919050565b60008115159050919050565b6000819050919050565b600073ffffffffffffffffffffffffffffffffffffffff82169050919050565b6000819050919050565b600060ff82169050919050565b60005b838110156118d75780820151818401526020810190506118bc565b838111156118e6576000848401525b50505050565b6000600282049050600182168061190457607f821691505b60208210811415611918576119176119a0565b5b50919050565b6000611929826118a2565b91507fffffffffffffffffffffffffffffffffffffffffffffffffffffffffffffffff82141561195c5761195b611971565b5b600182019050919050565b6000819050919050565b7f4e487b7100000000000000000000000000000000000000000000000000000000600052601160045260246000fd5b7f4e487b7100000000000000000000000000000000000000000000000000000000600052602260045260246000fd5b6000601f19601f8301169050919050565b6119e98161185a565b81146119f457600080fd5b50565b611a0081611878565b8114611a0b57600080fd5b50565b611a17816118a2565b8114611a2257600080fd5b50565b611a2e816118ac565b8114611a3957600080fd5b5056fea2646970667358221220c5e694ae13fb46fa251c7f890d7e36216f2cee753c5fd34842a0a75732f01eca64736f6c63430008000033",
  "linkReferences": {},
  "deployedLinkReferences": {}
}