{
  "_format": "hh-sol-artifact-1",
  "contractName": "Pool",
  "sourceName": "contracts/Pool.sol",
  "abi": [
    {
      "inputs": [
        {
          "internalType": "contract ERC20WithPermit",
          "name": "token",
          "type": "address"
        }
      ],
      "stateMutability": "nonpayable",
      "type": "constructor"
    },
    {
      "anonymous": false,
      "inputs": [
        {
          "indexed": true,
          "internalType": "address",
          "name": "from",
          "type": "address"
        },
        {
          "indexed": true,
          "internalType": "address",
          "name": "to",
          "type": "address"
        },
        {
          "indexed": true,
          "internalType": "uint256",
          "name": "amount",
          "type": "uint256"
        }
      ],
      "name": "PermittedAndTransferred",
      "type": "event"
    },
    {
      "inputs": [
        {
          "internalType": "uint256",
          "name": "amount",
          "type": "uint256"
        },
        {
          "internalType": "uint256",
          "name": "deadline",
          "type": "uint256"
        },
        {
          "internalType": "uint8",
          "name": "v",
          "type": "uint8"
        },
        {
          "internalType": "bytes32",
          "name": "r",
          "type": "bytes32"
        },
        {
          "internalType": "bytes32",
          "name": "s",
          "type": "bytes32"
        }
      ],
      "name": "doSomethingWithPermit",
      "outputs": [],
      "stateMutability": "nonpayable",
      "type": "function"
    }
  ],
  "bytecode": "0x608060405234801561001057600080fd5b506040516105de3803806105de8339818101604052810190610032919061008d565b806000806101000a81548173ffffffffffffffffffffffffffffffffffffffff021916908373ffffffffffffffffffffffffffffffffffffffff16021790555050610111565b600081519050610087816100fa565b92915050565b60006020828403121561009f57600080fd5b60006100ad84828501610078565b91505092915050565b60006100c1826100da565b9050919050565b60006100d3826100b6565b9050919050565b600073ffffffffffffffffffffffffffffffffffffffff82169050919050565b610103816100c8565b811461010e57600080fd5b50565b6104be806101206000396000f3fe608060405234801561001057600080fd5b506004361061002b5760003560e01c8063cd4409ff14610030575b600080fd5b61004a60048036038101906100459190610274565b61004c565b005b60008054906101000a900473ffffffffffffffffffffffffffffffffffffffff1673ffffffffffffffffffffffffffffffffffffffff1663d505accf333088888888886040518863ffffffff1660e01b81526004016100b1979695949392919061035e565b600060405180830381600087803b1580156100cb57600080fd5b505af11580156100df573d6000803e3d6000fd5b5050505060008054906101000a900473ffffffffffffffffffffffffffffffffffffffff1673ffffffffffffffffffffffffffffffffffffffff166323b872dd3361dead886040518463ffffffff1660e01b815260040161014293929190610327565b602060405180830381600087803b15801561015c57600080fd5b505af1158015610170573d6000803e3d6000fd5b505050506040513d601f19601f82011682018060405250810190610194919061024b565b50843073ffffffffffffffffffffffffffffffffffffffff163373ffffffffffffffffffffffffffffffffffffffff167f02d6eab17e09e523d7381fc1ad71dcb61439d0012c259d3c154661dc5b8e85c560405160405180910390a45050505050565b6000815190506102068161042c565b92915050565b60008135905061021b81610443565b92915050565b6000813590506102308161045a565b92915050565b60008135905061024581610471565b92915050565b60006020828403121561025d57600080fd5b600061026b848285016101f7565b91505092915050565b600080600080600060a0868803121561028c57600080fd5b600061029a88828901610221565b95505060206102ab88828901610221565b94505060406102bc88828901610236565b93505060606102cd8882890161020c565b92505060806102de8882890161020c565b9150509295509295909350565b6102f4816103cd565b82525050565b610303816103eb565b82525050565b61031281610415565b82525050565b6103218161041f565b82525050565b600060608201905061033c60008301866102eb565b61034960208301856102eb565b6103566040830184610309565b949350505050565b600060e082019050610373600083018a6102eb565b61038060208301896102eb565b61038d6040830188610309565b61039a6060830187610309565b6103a76080830186610318565b6103b460a08301856102fa565b6103c160c08301846102fa565b98975050505050505050565b60006103d8826103f5565b9050919050565b60008115159050919050565b6000819050919050565b600073ffffffffffffffffffffffffffffffffffffffff82169050919050565b6000819050919050565b600060ff82169050919050565b610435816103df565b811461044057600080fd5b50565b61044c816103eb565b811461045757600080fd5b50565b61046381610415565b811461046e57600080fd5b50565b61047a8161041f565b811461048557600080fd5b5056fea26469706673582212202cb9f5310f0b5693e89a166d71ee1664864521b9c48e7598d3fb004747523a6a64736f6c63430008000033",
  "linkReferences": {},
  "deployedLinkReferences": {}
}